{"abi":[{"type":"constructor","inputs":[],"stateMutability":"nonpayable"},{"type":"receive","stateMutability":"payable"},{"type":"function","name":"aavePool","inputs":[],"outputs":[{"name":"","type":"address","internalType":"contract IAavePool"}],"stateMutability":"view"},{"type":"function","name":"algebraSwapCallback","inputs":[{"name":"amount0Delta","type":"int256","internalType":"int256"},{"name":"amount1Delta","type":"int256","internalType":"int256"},{"name":"data","type":"bytes","internalType":"bytes"}],"outputs":[],"stateMutability":"nonpayable"},{"type":"function","name":"executeArb","inputs":[{"name":"tokenIn","type":"address","internalType":"address"},{"name":"amountIn","type":"uint256","internalType":"uint256"},{"name":"buyPool","type":"address","internalType":"address"},{"name":"sellPool","type":"address","internalType":"address"},{"name":"tokenOut","type":"address","internalType":"address"},{"name":"buyIsV3","type":"bool","internalType":"bool"},{"name":"sellIsV3","type":"bool","internalType":"bool"},{"name":"minProfit","type":"uint256","internalType":"uint256"}],"outputs":[],"stateMutability":"nonpayable"},{"type":"function","name":"executeArbAaveFL","inputs":[{"name":"tokenIn","type":"address","internalType":"address"},{"name":"amountIn","type":"uint256","internalType":"uint256"},{"name":"buyPool","type":"address","internalType":"address"},{"name":"sellPool","type":"address","internalType":"address"},{"name":"tokenOut","type":"address","internalType":"address"},{"name":"buyIsV3","type":"bool","internalType":"bool"},{"name":"sellIsV3","type":"bool","internalType":"bool"},{"name":"minProfit","type":"uint256","internalType":"uint256"}],"outputs":[],"stateMutability":"nonpayable"},{"type":"function","name":"executeArbFlashLoan","inputs":[{"name":"tokenIn","type":"address","internalType":"address"},{"name":"amountIn","type":"uint256","internalType":"uint256"},{"name":"buyPool","type":"address","internalType":"address"},{"name":"sellPool","type":"address","internalType":"address"},{"name":"tokenOut","type":"address","internalType":"address"},{"name":"buyIsV3","type":"bool","internalType":"bool"},{"name":"sellIsV3","type":"bool","internalType":"bool"},{"name":"minProfit","type":"uint256","internalType":"uint256"}],"outputs":[],"stateMutability":"nonpayable"},{"type":"function","name":"executeMultiHopAaveFL","inputs":[{"name":"flashToken","type":"address","internalType":"address"},{"name":"flashAmount","type":"uint256","internalType":"uint256"},{"name":"hops","type":"tuple[]","internalType":"struct ArbExecutor.SwapHop[]","components":[{"name":"pool","type":"address","internalType":"address"},{"name":"tokenOut","type":"address","internalType":"address"},{"name":"isV3","type":"bool","internalType":"bool"},{"name":"isCurve","type":"bool","internalType":"bool"},{"name":"zeroForOne","type":"bool","internalType":"bool"},{"name":"amountOut","type":"uint256","internalType":"uint256"},{"name":"curveI","type":"int128","internalType":"int128"},{"name":"curveJ","type":"int128","internalType":"int128"}]},{"name":"minProfit","type":"uint256","internalType":"uint256"}],"outputs":[],"stateMutability":"nonpayable"},{"type":"function","name":"executeMultiHopFlashLoan","inputs":[{"name":"flashToken","type":"address","internalType":"address"},{"name":"flashAmount","type":"uint256","internalType":"uint256"},{"name":"hops","type":"tuple[]","internalType":"struct ArbExecutor.SwapHop[]","components":[{"name":"pool","type":"address","internalType":"address"},{"name":"tokenOut","type":"address","internalType":"address"},{"name":"isV3","type":"bool","internalType":"bool"},{"name":"isCurve","type":"bool","internalType":"bool"},{"name":"zeroForOne","type":"bool","internalType":"bool"},{"name":"amountOut","type":"uint256","internalType":"uint256"},{"name":"curveI","type":"int128","internalType":"int128"},{"name":"curveJ","type":"int128","internalType":"int128"}]},{"name":"minProfit","type":"uint256","internalType":"uint256"}],"outputs":[],"stateMutability":"nonpayable"},{"type":"function","name":"executeOperation","inputs":[{"name":"asset","type":"address","internalType":"address"},{"name":"amount","type":"uint256","internalType":"uint256"},{"name":"premium","type":"uint256","internalType":"uint256"},{"name":"initiator","type":"address","internalType":"address"},{"name":"params","type":"bytes","internalType":"bytes"}],"outputs":[{"name":"","type":"bool","internalType":"bool"}],"stateMutability":"nonpayable"},{"type":"function","name":"liquidateFlashLoan","inputs":[{"name":"lendingPool","type":"address","internalType":"address"},{"name":"borrower","type":"address","internalType":"address"},{"name":"debtToken","type":"address","internalType":"address"},{"name":"debtAmount","type":"uint256","internalType":"uint256"},{"name":"collateralToken","type":"address","internalType":"address"},{"name":"sellPool","type":"address","internalType":"address"},{"name":"sellIsV3","type":"bool","internalType":"bool"},{"name":"sellIsCurve","type":"bool","internalType":"bool"},{"name":"minProfit","type":"uint256","internalType":"uint256"}],"outputs":[],"stateMutability":"nonpayable"},{"type":"function","name":"owner","inputs":[],"outputs":[{"name":"","type":"address","internalType":"address"}],"stateMutability":"view"},{"type":"function","name":"pancakeV3SwapCallback","inputs":[{"name":"amount0Delta","type":"int256","internalType":"int256"},{"name":"amount1Delta","type":"int256","internalType":"int256"},{"name":"data","type":"bytes","internalType":"bytes"}],"outputs":[],"stateMutability":"nonpayable"},{"type":"function","name":"receiveFlashLoan","inputs":[{"name":"tokens","type":"address[]","internalType":"address[]"},{"name":"amounts","type":"uint256[]","internalType":"uint256[]"},{"name":"feeAmounts","type":"uint256[]","internalType":"uint256[]"},{"name":"userData","type":"bytes","internalType":"bytes"}],"outputs":[],"stateMutability":"nonpayable"},{"type":"function","name":"setApproval","inputs":[{"name":"token","type":"address","internalType":"address"},{"name":"spender","type":"address","internalType":"address"},{"name":"amount","type":"uint256","internalType":"uint256"}],"outputs":[],"stateMutability":"nonpayable"},{"type":"function","name":"uniswapV3SwapCallback","inputs":[{"name":"amount0Delta","type":"int256","internalType":"int256"},{"name":"amount1Delta","type":"int256","internalType":"int256"},{"name":"data","type":"bytes","internalType":"bytes"}],"outputs":[],"stateMutability":"nonpayable"},{"type":"function","name":"vault","inputs":[],"outputs":[{"name":"","type":"address","internalType":"contract IBalancerVault"}],"stateMutability":"view"},{"type":"function","name":"withdraw","inputs":[{"name":"token","type":"address","internalType":"address"},{"name":"amount","type":"uint256","internalType":"uint256"}],"outputs":[],"stateMutability":"nonpayable"},{"type":"function","name":"withdrawETH","inputs":[],"outputs":[],"stateMutability":"nonpayable"}],"bytecode":{"object":"0x60a060405234801561000f575f80fd5b50336080526080516136f86100795f395f81816102460152818161032b0152818161041f0152818161085e0152818161099d01528181610b1201528181610d3301528181610ef201528181611099015281816110d9015281816119a50152611a0601526136f85ff3fe6080604052600436106100fc575f3560e01c806364c7021411610092578063e086e5ec11610062578063e086e5ec146102a7578063f04f2707146102bb578063f3fef3a3146102da578063fa461e331461017b578063fbfa77cf146102f9575f80fd5b806364c70214146101f75780637c93656c146102165780638da5cb5b14610235578063a03e4bc314610280575f80fd5b80632c8958f6116100cd5780632c8958f61461017b57806346ce97ef1461019a578063508f0a87146101b957806352da377f146101d8575f80fd5b8062b27b29146101075780630c9fcec9146101285780631b11d0ff1461014757806323a69e751461017b575f80fd5b3661010357005b5f80fd5b348015610112575f80fd5b50610126610121366004612afe565b610320565b005b348015610133575f80fd5b50610126610142366004612b90565b610414565b348015610152575f80fd5b50610166610161366004612c13565b6104d0565b60405190151581526020015b60405180910390f35b348015610186575f80fd5b50610126610195366004612c8a565b610847565b3480156101a5575f80fd5b506101266101b4366004612cd9565b610853565b3480156101c4575f80fd5b506101266101d3366004612afe565b610992565b3480156101e3575f80fd5b506101266101f2366004612d65565b610b07565b348015610202575f80fd5b50610126610211366004612cd9565b610d28565b348015610221575f80fd5b50610126610230366004612afe565b610ee7565b348015610240575f80fd5b506102687f000000000000000000000000000000000000000000000000000000000000000081565b6040516001600160a01b039091168152602001610172565b34801561028b575f80fd5b5061026873794a61358d6845594f94dc1db02a252b5b4814ad81565b3480156102b2575f80fd5b5061012661108e565b3480156102c6575f80fd5b506101266102d5366004612f45565b61118e565b3480156102e5575f80fd5b506101266102f4366004613047565b61199a565b348015610304575f80fd5b5061026873ba12222222228d8ba445958a75a0704d566bf2c881565b336001600160a01b037f000000000000000000000000000000000000000000000000000000000000000016146103715760405162461bcd60e51b815260040161036890613071565b60405180910390fd5b5f86868686868660405160200161038d96959493929190613094565b60408051601f19818403018152908290526310ac2ddf60e21b8252915073794a61358d6845594f94dc1db02a252b5b4814ad906342b0b77c906103dc9030908d908d9087905f9060040161311c565b5f604051808303815f87803b1580156103f3575f80fd5b505af1158015610405573d5f803e3d5ffd5b50505050505050505050505050565b336001600160a01b037f0000000000000000000000000000000000000000000000000000000000000000161461045c5760405162461bcd60e51b815260040161036890613071565b60405163095ea7b360e01b81526001600160a01b0384169063095ea7b39061048a9085908590600401613164565b6020604051808303815f875af11580156104a6573d5f803e3d5ffd5b505050506040513d601f19601f820116820180604052508101906104ca919061317d565b50505050565b5f3373794a61358d6845594f94dc1db02a252b5b4814ad1461051f5760405162461bcd60e51b81526020600482015260086024820152676e6f74206161766560c01b6044820152606401610368565b6001600160a01b03841630146105675760405162461bcd60e51b815260206004820152600d60248201526c3130b21034b734ba34b0ba37b960991b6044820152606401610368565b6040516370a0823160e01b81523060048201525f906001600160a01b038916906370a0823190602401602060405180830381865afa1580156105ab573d5f803e3d5ffd5b505050506040513d601f19601f820116820180604052508101906105cf919061319f565b6001549091505f90156106ce5760025490506106ba89896001805480602002602001604051908101604052809291908181526020015f905b828210156106b1575f84815260209081902060408051610100810182526004860290920180546001600160a01b0390811684526001808301549182168587015260ff600160a01b83048116151594860194909452600160a81b8204841615156060860152600160b01b90910490921615156080840152600281015460a084015260030154600f81810b60c0850152600160801b909104900b60e08301529083529092019101610607565b50505050611a75565b6106c560015f612a82565b5f600255610705565b5f80808080806106e08a8c018c6131b6565b9550955095509550955095508096506106fe8f8f8888888888611c88565b5050505050505b5f610710888a61323f565b6040516370a0823160e01b81523060048201529091505f906001600160a01b038c16906370a0823190602401602060405180830381865afa158015610757573d5f803e3d5ffd5b505050506040513d601f19601f8201168201806040525081019061077b919061319f565b905082610788838661323f565b610792919061323f565b8110156107b15760405162461bcd60e51b815260040161036890613258565b60405163095ea7b360e01b81526001600160a01b038c169063095ea7b3906107f39073794a61358d6845594f94dc1db02a252b5b4814ad908690600401613164565b6020604051808303815f875af115801561080f573d5f803e3d5ffd5b505050506040513d601f19601f82011682018060405250810190610833919061317d565b5060019450505050505b9695505050505050565b6104ca84848484611ce1565b336001600160a01b037f0000000000000000000000000000000000000000000000000000000000000000161461089b5760405162461bcd60e51b815260040161036890613071565b5f5b828110156108fc5760018484838181106108b9576108b9613285565b83546001810185555f9485526020909420610100909102929092019260040290910190506108e782826132d6565b505080806108f4906133f3565b91505061089d565b5060028190556040516310ac2ddf60e21b81523060048201526001600160a01b03861660248201526044810185905260a060648201525f60a48201819052608482015273794a61358d6845594f94dc1db02a252b5b4814ad906342b0b77c9060c4015f604051808303815f87803b158015610975575f80fd5b505af1158015610987573d5f803e3d5ffd5b505050505050505050565b336001600160a01b037f000000000000000000000000000000000000000000000000000000000000000016146109da5760405162461bcd60e51b815260040161036890613071565b5f8686868686866040516020016109f696959493929190613094565b60408051601f19818403018152600180845283830190925292505f91906020808301908036833701905050905089815f81518110610a3657610a36613285565b6001600160a01b0392909216602092830291909101909101526040805160018082528183019092525f9181602001602082028036833701905050905089815f81518110610a8557610a85613285565b6020908102919091010152604051632e1c224f60e11b815273ba12222222228d8ba445958a75a0704d566bf2c890635c38449e90610acd90309086908690899060040161340b565b5f604051808303815f87803b158015610ae4575f80fd5b505af1158015610af6573d5f803e3d5ffd5b505050505050505050505050505050565b336001600160a01b037f00000000000000000000000000000000000000000000000000000000000000001614610b4f5760405162461bcd60e51b815260040161036890613071565b60408051610100810182526001600160a01b038b81168083528b821660208085018290528a84168587018190528d851660608701819052948b16608087018190528a151560a088018190528a151560c0890181905260e09098018a9052600380546001600160a01b0319908116909717905560048054871690951790945560058054861690921790915560068054909416909417909255600780546001600160a81b031916909317600160a01b9091021760ff60a81b1916600160a81b9093029290921790556008839055815160018082528184019093525f929091828101908036833701905050905087815f81518110610c4c57610c4c613285565b6001600160a01b0392909216602092830291909101909101526040805160018082528183019092525f9181602001602082028036833701905050905087815f81518110610c9b57610c9b613285565b60200260200101818152505073ba12222222228d8ba445958a75a0704d566bf2c86001600160a01b0316635c38449e308484604051602001610cfa906020808252600990820152684c495155494441544560b81b604082015260600190565b6040516020818303038152906040526040518563ffffffff1660e01b8152600401610acd949392919061340b565b336001600160a01b037f00000000000000000000000000000000000000000000000000000000000000001614610d705760405162461bcd60e51b815260040161036890613071565b5f5b82811015610dd1576001848483818110610d8e57610d8e613285565b83546001810185555f948552602090942061010090910292909201926004029091019050610dbc82826132d6565b50508080610dc9906133f3565b915050610d72565b50600281905560408051602080820183525f808352835160018082528186019095529293909291828101908036833701905050905086815f81518110610e1957610e19613285565b6001600160a01b0392909216602092830291909101909101526040805160018082528183019092525f9181602001602082028036833701905050905086815f81518110610e6857610e68613285565b6020908102919091010152604051632e1c224f60e11b815273ba12222222228d8ba445958a75a0704d566bf2c890635c38449e90610eb090309086908690899060040161340b565b5f604051808303815f87803b158015610ec7575f80fd5b505af1158015610ed9573d5f803e3d5ffd5b505050505050505050505050565b336001600160a01b037f00000000000000000000000000000000000000000000000000000000000000001614610f2f5760405162461bcd60e51b815260040161036890613071565b6040516370a0823160e01b81523060048201525f906001600160a01b038a16906370a0823190602401602060405180830381865afa158015610f73573d5f803e3d5ffd5b505050506040513d601f19601f82011682018060405250810190610f97919061319f565b905087811015610fe05760405162461bcd60e51b8152602060048201526014602482015273696e73756666696369656e742062616c616e636560601b6044820152606401610368565b610fef89898989898989611c88565b6040516370a0823160e01b81523060048201525f906001600160a01b038b16906370a0823190602401602060405180830381865afa158015611033573d5f803e3d5ffd5b505050506040513d601f19601f82011682018060405250810190611057919061319f565b9050611063838361323f565b8110156110825760405162461bcd60e51b815260040161036890613258565b50505050505050505050565b336001600160a01b037f000000000000000000000000000000000000000000000000000000000000000016146110d65760405162461bcd60e51b815260040161036890613071565b5f7f00000000000000000000000000000000000000000000000000000000000000006001600160a01b0316476040515f6040518083038185875af1925050503d805f811461113f576040519150601f19603f3d011682016040523d82523d5f602084013e611144565b606091505b505090508061118b5760405162461bcd60e51b8152602060048201526013602482015272115512081d1c985b9cd9995c8819985a5b1959606a1b6044820152606401610368565b50565b3373ba12222222228d8ba445958a75a0704d566bf2c8146111dd5760405162461bcd60e51b81526020600482015260096024820152681b9bdd081d985d5b1d60ba1b6044820152606401610368565b5f845f815181106111f0576111f0613285565b602002602001015190505f845f8151811061120d5761120d613285565b602002602001015190505f845f8151811061122a5761122a613285565b602002602001015190505f8183611241919061323f565b6003549091506001600160a01b0316156116e3576040805161010081018252600380546001600160a01b03808216845260048054808316602087015260058054808516888a01526006805480871660608b018190526007805498891660808d015260ff600160a01b8a048116151560a08e0152600160a81b8a0416151560c08d01526008805460e08e01526001600160a01b03199a8b16909b559589168755928816909355959091169094556001600160b01b03199092169091555f9283905593516370a0823160e01b8152309481019490945291929091906370a0823190602401602060405180830381865afa15801561133e573d5f803e3d5ffd5b505050506040513d601f19601f82011682018060405250810190611362919061319f565b6060830151835160405163095ea7b360e01b81529293506001600160a01b039091169163095ea7b391611399918990600401613164565b6020604051808303815f875af11580156113b5573d5f803e3d5ffd5b505050506040513d601f19601f820116820180604052508101906113d9919061317d565b50815160408084015160608501516020860151925162a718a960e01b81526001600160a01b03928316600482015290821660248201529181166044830152606482018890525f60848301529091169062a718a99060a4015f604051808303815f87803b158015611447575f80fd5b505af1158015611459573d5f803e3d5ffd5b5050505060408281015190516370a0823160e01b81523060048201525f916001600160a01b0316906370a0823190602401602060405180830381865afa1580156114a5573d5f803e3d5ffd5b505050506040513d601f19601f820116820180604052508101906114c9919061319f565b90505f81116115135760405162461bcd60e51b81526020600482015260166024820152751b9bc818dbdb1b185d195c985b081c9958d95a5d995960521b6044820152606401610368565b8260c001511561153b5761153583608001518460400151856060015184611dd9565b50611578565b8260a001511561155d5761153583608001518460400151856060015184611f7d565b61157683608001518460400151856060015184306120f5565b505b60608301516040516370a0823160e01b81523060048201525f916001600160a01b0316906370a0823190602401602060405180830381865afa1580156115c0573d5f803e3d5ffd5b505050506040513d601f19601f820116820180604052508101906115e4919061319f565b60e08501519091506115f6868561323f565b611600919061323f565b81101561164f5760405162461bcd60e51b815260206004820152601860248201527f6c69717569646174696f6e20756e70726f66697461626c6500000000000000006044820152606401610368565b83606001516001600160a01b031663a9059cbb73ba12222222228d8ba445958a75a0704d566bf2c8876040518363ffffffff1660e01b8152600401611695929190613164565b6020604051808303815f875af11580156116b1573d5f803e3d5ffd5b505050506040513d601f19601f820116820180604052508101906116d5919061317d565b5050505050505050506104ca565b6040516370a0823160e01b81523060048201525f906001600160a01b038616906370a0823190602401602060405180830381865afa158015611727573d5f803e3d5ffd5b505050506040513d601f19601f8201168201806040525081019061174b919061319f565b6001549091505f901561183b57506002546001805460408051602080840282018101909252828152611827938a938a935f90840182156106b1575f84815260209081902060408051610100810182526004860290920180546001600160a01b0390811684526001808301549182168587015260ff600160a01b83048116151594860194909452600160a81b8204841615156060860152600160b01b90910490921615156080840152600281015460a084015260030154600f81810b60c0850152600160801b909104900b60e08301529083529092019101610607565b61183260015f612a82565b5f60025561187a565b5f805f805f808c80602001905181019061185591906134a5565b9550955095509550955095508096506118738c8c8888888888611c88565b5050505050505b6040516370a0823160e01b81523060048201525f906001600160a01b038816906370a0823190602401602060405180830381865afa1580156118be573d5f803e3d5ffd5b505050506040513d601f19601f820116820180604052508101906118e2919061319f565b9050816118ef858561323f565b6118f9919061323f565b8110156119185760405162461bcd60e51b815260040161036890613258565b60405163a9059cbb60e01b81526001600160a01b0388169063a9059cbb9061195a9073ba12222222228d8ba445958a75a0704d566bf2c8908890600401613164565b6020604051808303815f875af1158015611976573d5f803e3d5ffd5b505050506040513d601f19601f82011682018060405250810190610ed9919061317d565b336001600160a01b037f000000000000000000000000000000000000000000000000000000000000000016146119e25760405162461bcd60e51b815260040161036890613071565b60405163a9059cbb60e01b81526001600160a01b0383169063a9059cbb90611a30907f0000000000000000000000000000000000000000000000000000000000000000908590600401613164565b6020604051808303815f875af1158015611a4c573d5f803e3d5ffd5b505050506040513d601f19601f82011682018060405250810190611a70919061317d565b505050565b82825f5b8351811015611c80578015611af1576040516370a0823160e01b81523060048201526001600160a01b038416906370a0823190602401602060405180830381865afa158015611aca573d5f803e3d5ffd5b505050506040513d601f19601f82011682018060405250810190611aee919061319f565b91505b838181518110611b0357611b03613285565b60200260200101516060015115611b7e57611b77848281518110611b2957611b29613285565b60200260200101515f01518484878581518110611b4857611b48613285565b602002602001015160c00151888681518110611b6657611b66613285565b602002602001015160e001516124ed565b9150611c4d565b838181518110611b9057611b90613285565b60200260200101516040015115611be657611b77848281518110611bb657611bb6613285565b60200260200101515f01518484878581518110611bd557611bd5613285565b6020026020010151608001516125de565b611c4a848281518110611bfb57611bfb613285565b60200260200101515f01518484878581518110611c1a57611c1a613285565b602002602001015160800151888681518110611c3857611c38613285565b602002602001015160a00151306126d9565b91505b838181518110611c5f57611c5f613285565b60200260200101516020015192508080611c78906133f3565b915050611a79565b505050505050565b5f8215611ca257611c9b8689868a611f7d565b9050611cb2565b611caf8689868a306120f5565b90505b8115611cca57611cc485858a84611f7d565b50611cd7565b61098785858a84306120f5565b5050505050505050565b5f546001600160a01b03163314611d325760405162461bcd60e51b8152602060048201526015602482015274756e617574686f72697a65642063616c6c6261636b60581b6044820152606401610368565b5f80546001600160a01b0319168155611d4d8284018461351e565b90505f808613611d5d5784611d5f565b855b60405163a9059cbb60e01b81529091506001600160a01b0383169063a9059cbb90611d909033908590600401613164565b6020604051808303815f875af1158015611dac573d5f803e3d5ffd5b505050506040513d601f19601f82011682018060405250810190611dd0919061317d565b50505050505050565b60405163c661065760e01b81525f600482018190529081906001600160a01b0387169063c661065790602401602060405180830381865afa158015611e20573d5f803e3d5ffd5b505050506040513d601f19601f82011682018060405250810190611e449190613539565b90505f816001600160a01b0316866001600160a01b031614611e67576001611e69565b5f5b90505f81600f0b5f14611e7c575f611e7f565b60015b60405163095ea7b360e01b81529091506001600160a01b0388169063095ea7b390611eb0908b908990600401613164565b6020604051808303815f875af1158015611ecc573d5f803e3d5ffd5b505050506040513d601f19601f82011682018060405250810190611ef0919061317d565b50604051630f7c084960e21b8152600f83810b600483015282900b6024820152604481018690525f60648201526001600160a01b03891690633df02124906084016020604051808303815f875af1158015611f4d573d5f803e3d5ffd5b505050506040513d601f19601f82011682018060405250810190611f71919061319f565b98975050505050505050565b5f80856001600160a01b0316630dfe16816040518163ffffffff1660e01b8152600401602060405180830381865afa158015611fbb573d5f803e3d5ffd5b505050506040513d601f19601f82011682018060405250810190611fdf9190613539565b5f80546001600160a01b0319166001600160a01b0389811691821783559293508383169288169290921491819063128acb08308589816120335773fffd8963efd1fc6a506488495d951d5263988d2561203a565b6401000276a45b8d60405160200161205a91906001600160a01b0391909116815260200190565b6040516020818303038152906040526040518663ffffffff1660e01b8152600401612089959493929190613554565b60408051808303815f875af11580156120a4573d5f803e3d5ffd5b505050506040513d601f19601f820116820180604052508101906120c8919061358e565b91509150826120df576120da826135b0565b6120e8565b6120e8816135b0565b9998505050505050505050565b60405163a9059cbb60e01b81525f906001600160a01b0386169063a9059cbb906121259089908790600401613164565b6020604051808303815f875af1158015612141573d5f803e3d5ffd5b505050506040513d601f19601f82011682018060405250810190612165919061317d565b505f80876001600160a01b0316630902f1ac6040518163ffffffff1660e01b8152600401606060405180830381865afa1580156121a4573d5f803e3d5ffd5b505050506040513d601f19601f820116820180604052508101906121c891906135e5565b50915091505f886001600160a01b0316630dfe16816040518163ffffffff1660e01b8152600401602060405180830381865afa15801561220a573d5f803e3d5ffd5b505050506040513d601f19601f8201168201806040525081019061222e9190613539565b90506001600160a01b03888116908216145f808261225f57846001600160701b0316866001600160701b0316612274565b856001600160701b0316856001600160701b03165b9092509050601e5f806001600160a01b038f1686612299576317e68b4960e11b6122a2565b6362ecec0360e01b5b60408051600481526024810182526020810180516001600160e01b03166001600160e01b031990941693909317909252516122dd9190613631565b5f60405180830381855afa9150503d805f8114612315576040519150601f19603f3d011682016040523d82523d5f602084013e61231a565b606091505b509150915081801561232e57506020815110155b15612371575f81806020019051810190612348919061319f565b90505f8111801561235a575061271081105b1561236f5761236a60648261364c565b509250825b505b5f82801561238157506020825110155b156123d65761239384620186a061366b565b90505f6123a0828f61367e565b9050806123b088620186a061367e565b6123ba919061323f565b6123c4878361367e565b6123ce919061364c565b9b5050612414565b5f6123e38e6103e561367e565b9050806123f2886103e861367e565b6123fc919061323f565b612406878361367e565b612410919061364c565b9b50505b861561247c578f6001600160a01b031663022c0d9f5f8d8f6040518463ffffffff1660e01b815260040161244a93929190613695565b5f604051808303815f87803b158015612461575f80fd5b505af1158015612473573d5f803e3d5ffd5b505050506124da565b8f6001600160a01b031663022c0d9f8c5f8f6040518463ffffffff1660e01b81526004016124ac93929190613695565b5f604051808303815f87803b1580156124c3575f80fd5b505af11580156124d5573d5f803e3d5ffd5b505050505b5050505050505050505095945050505050565b60405163095ea7b360e01b81525f906001600160a01b0386169063095ea7b39061251d9089908890600401613164565b6020604051808303815f875af1158015612539573d5f803e3d5ffd5b505050506040513d601f19601f8201168201806040525081019061255d919061317d565b50604051630f7c084960e21b8152600f84810b600483015283900b6024820152604481018590525f60648201526001600160a01b03871690633df02124906084016020604051808303815f875af11580156125ba573d5f803e3d5ffd5b505050506040513d601f19601f8201168201806040525081019061083d919061319f565b5f80546001600160a01b0319166001600160a01b03861690811782558190819063128acb08308688816126255773fffd8963efd1fc6a506488495d951d5263988d2561262c565b6401000276a45b604080516001600160a01b038e166020820152016040516020818303038152906040526040518663ffffffff1660e01b815260040161266f959493929190613554565b60408051808303815f875af115801561268a573d5f803e3d5ffd5b505050506040513d601f19601f820116820180604052508101906126ae919061358e565b91509150836126c5576126c0826135b0565b6126ce565b6126ce816135b0565b979650505050505050565b60405163a9059cbb60e01b81525f906001600160a01b0387169063a9059cbb90612709908a908990600401613164565b6020604051808303815f875af1158015612725573d5f803e3d5ffd5b505050506040513d601f19601f82011682018060405250810190612749919061317d565b5082156127575750816129b3565b5f80886001600160a01b0316630902f1ac6040518163ffffffff1660e01b8152600401606060405180830381865afa158015612795573d5f803e3d5ffd5b505050506040513d601f19601f820116820180604052508101906127b991906135e5565b50915091505f80876127de57826001600160701b0316846001600160701b03166127f3565b836001600160701b0316836001600160701b03165b915091505f808c6001600160a01b03168a612815576317e68b4960e11b61281e565b6362ecec0360e01b5b60408051600481526024810182526020810180516001600160e01b03166001600160e01b031990941693909317909252516128599190613631565b5f60405180830381855afa9150503d805f8114612891576040519150601f19603f3d011682016040523d82523d5f602084013e612896565b606091505b50915091508180156128aa57506020815110155b1561296e575f818060200190518101906128c4919061319f565b90505f811180156128d75750620186a081105b1561292a575f6128ea82620186a061366b565b6128f4908e61367e565b90508061290487620186a061367e565b61290e919061323f565b612918868361367e565b612922919061364c565b985050612968565b5f6129378d6103e561367e565b905080612946876103e861367e565b612950919061323f565b61295a868361367e565b612964919061364c565b9850505b506129ac565b5f61297b8c6103e561367e565b90508061298a866103e861367e565b612994919061323f565b61299e858361367e565b6129a8919061364c565b9750505b5050505050505b8315612a1b5760405163022c0d9f60e01b81526001600160a01b0388169063022c0d9f906129e9905f9085908790600401613695565b5f604051808303815f87803b158015612a00575f80fd5b505af1158015612a12573d5f803e3d5ffd5b5050505061083d565b60405163022c0d9f60e01b81526001600160a01b0388169063022c0d9f90612a4b9084905f908790600401613695565b5f604051808303815f87803b158015612a62575f80fd5b505af1158015612a74573d5f803e3d5ffd5b505050509695505050505050565b5080545f8255600402905f5260205f209081019061118b91905b80821115612ad95780546001600160a01b03191681556001810180546001600160b81b03191690555f600282018190556003820155600401612a9c565b5090565b6001600160a01b038116811461118b575f80fd5b801515811461118b575f80fd5b5f805f805f805f80610100898b031215612b16575f80fd5b8835612b2181612add565b9750602089013596506040890135612b3881612add565b95506060890135612b4881612add565b94506080890135612b5881612add565b935060a0890135612b6881612af1565b925060c0890135612b7881612af1565b8092505060e089013590509295985092959890939650565b5f805f60608486031215612ba2575f80fd5b8335612bad81612add565b92506020840135612bbd81612add565b929592945050506040919091013590565b5f8083601f840112612bde575f80fd5b50813567ffffffffffffffff811115612bf5575f80fd5b602083019150836020828501011115612c0c575f80fd5b9250929050565b5f805f805f8060a08789031215612c28575f80fd5b8635612c3381612add565b955060208701359450604087013593506060870135612c5181612add565b9250608087013567ffffffffffffffff811115612c6c575f80fd5b612c7889828a01612bce565b979a9699509497509295939492505050565b5f805f8060608587031215612c9d575f80fd5b8435935060208501359250604085013567ffffffffffffffff811115612cc1575f80fd5b612ccd87828801612bce565b95989497509550505050565b5f805f805f60808688031215612ced575f80fd5b8535612cf881612add565b945060208601359350604086013567ffffffffffffffff80821115612d1b575f80fd5b818801915088601f830112612d2e575f80fd5b813581811115612d3c575f80fd5b8960208260081b8501011115612d50575f80fd5b96999598505060200195606001359392505050565b5f805f805f805f805f6101208a8c031215612d7e575f80fd5b8935612d8981612add565b985060208a0135612d9981612add565b975060408a0135612da981612add565b965060608a0135955060808a0135612dc081612add565b945060a08a0135612dd081612add565b935060c08a0135612de081612af1565b925060e08a0135612df081612af1565b809250506101008a013590509295985092959850929598565b634e487b7160e01b5f52604160045260245ffd5b604051601f8201601f1916810167ffffffffffffffff81118282101715612e4657612e46612e09565b604052919050565b5f67ffffffffffffffff821115612e6757612e67612e09565b5060051b60200190565b5f82601f830112612e80575f80fd5b81356020612e95612e9083612e4e565b612e1d565b82815260059290921b84018101918181019086841115612eb3575f80fd5b8286015b84811015612ece5780358352918301918301612eb7565b509695505050505050565b5f82601f830112612ee8575f80fd5b813567ffffffffffffffff811115612f0257612f02612e09565b612f15601f8201601f1916602001612e1d565b818152846020838601011115612f29575f80fd5b816020850160208301375f918101602001919091529392505050565b5f805f8060808587031215612f58575f80fd5b843567ffffffffffffffff80821115612f6f575f80fd5b818701915087601f830112612f82575f80fd5b81356020612f92612e9083612e4e565b82815260059290921b8401810191818101908b841115612fb0575f80fd5b948201945b83861015612fd7578535612fc881612add565b82529482019490820190612fb5565b98505088013592505080821115612fec575f80fd5b612ff888838901612e71565b9450604087013591508082111561300d575f80fd5b61301988838901612e71565b9350606087013591508082111561302e575f80fd5b5061303b87828801612ed9565b91505092959194509250565b5f8060408385031215613058575f80fd5b823561306381612add565b946020939093013593505050565b6020808252600990820152683737ba1037bbb732b960b91b604082015260600190565b6001600160a01b039687168152948616602086015292909416604084015215156060830152911515608082015260a081019190915260c00190565b5f5b838110156130e95781810151838201526020016130d1565b50505f910152565b5f81518084526131088160208601602086016130cf565b601f01601f19169290920160200192915050565b6001600160a01b038681168252851660208201526040810184905260a0606082018190525f9061314e908301856130f1565b905061ffff831660808301529695505050505050565b6001600160a01b03929092168252602082015260400190565b5f6020828403121561318d575f80fd5b815161319881612af1565b9392505050565b5f602082840312156131af575f80fd5b5051919050565b5f805f805f8060c087890312156131cb575f80fd5b86356131d681612add565b955060208701356131e681612add565b945060408701356131f681612add565b9350606087013561320681612af1565b9250608087013561321681612af1565b8092505060a087013590509295509295509295565b634e487b7160e01b5f52601160045260245ffd5b808201808211156132525761325261322b565b92915050565b6020808252601390820152721a5b9cdd59999a58da595b9d081c1c9bd99a5d606a1b604082015260600190565b634e487b7160e01b5f52603260045260245ffd5b80546001600160a01b0319166001600160a01b0392909216919091179055565b5f813561325281612af1565b5f813580600f0b8114613252575f80fd5b81356132e181612add565b6132eb8183613299565b506001810160208301356132fe81612add565b6133088183613299565b50604083013561331781612af1565b815460ff60a01b191690151560a01b60ff60a01b1617815561335c61333e606085016132b9565b82805460ff60a81b191691151560a81b60ff60a81b16919091179055565b61338961336b608085016132b9565b82805460ff60b01b191691151560b01b60ff60b01b16919091179055565b5060a08201356002820155600381016133c46133a760c085016132c5565b82546001600160801b0319166001600160801b0391909116178255565b611a706133d360e085016132c5565b82546001600160801b031660809190911b6001600160801b031916178255565b5f600182016134045761340461322b565b5060010190565b6001600160a01b0385811682526080602080840182905286519184018290525f928782019290919060a0860190855b8181101561345857855185168352948301949183019160010161343a565b505085810360408701528751808252908201935091508087015f5b8381101561348f57815185529382019390820190600101613473565b5050505082810360608401526126ce81856130f1565b5f805f805f8060c087890312156134ba575f80fd5b86516134c581612add565b60208801519096506134d681612add565b60408801519095506134e781612add565b60608801519094506134f881612af1565b608088015190935061350981612af1565b8092505060a087015190509295509295509295565b5f6020828403121561352e575f80fd5b813561319881612add565b5f60208284031215613549575f80fd5b815161319881612add565b6001600160a01b0386811682528515156020830152604082018590528316606082015260a0608082018190525f906126ce908301846130f1565b5f806040838503121561359f575f80fd5b505080516020909101519092909150565b5f600160ff1b82016135c4576135c461322b565b505f0390565b80516001600160701b03811681146135e0575f80fd5b919050565b5f805f606084860312156135f7575f80fd5b613600846135ca565b925061360e602085016135ca565b9150604084015163ffffffff81168114613626575f80fd5b809150509250925092565b5f82516136428184602087016130cf565b9190910192915050565b5f8261366657634e487b7160e01b5f52601260045260245ffd5b500490565b818103818111156132525761325261322b565b80820281158282048414176132525761325261322b565b92835260208301919091526001600160a01b031660408201526080606082018190525f9082015260a0019056fea2646970667358221220cbd2a07305667ee924b11a26101ca69f72fbe48abf5d83469adb74f2b667198c64736f6c63430008140033","linkReferences":{}},"methodIdentifiers":{"aavePool()":"a03e4bc3","algebraSwapCallback(int256,int256,bytes)":"2c8958f6","executeArb(address,uint256,address,address,address,bool,bool,uint256)":"7c93656c","executeArbAaveFL(address,uint256,address,address,address,bool,bool,uint256)":"00b27b29","executeArbFlashLoan(address,uint256,address,address,address,bool,bool,uint256)":"508f0a87","executeMultiHopAaveFL(address,uint256,(address,address,bool,bool,bool,uint256,int128,int128)[],uint256)":"46ce97ef","executeMultiHopFlashLoan(address,uint256,(address,address,bool,bool,bool,uint256,int128,int128)[],uint256)":"64c70214","executeOperation(address,uint256,uint256,address,bytes)":"1b11d0ff","liquidateFlashLoan(address,address,address,uint256,address,address,bool,bool,uint256)":"52da377f","owner()":"8da5cb5b","pancakeV3SwapCallback(int256,int256,bytes)":"23a69e75","receiveFlashLoan(address[],uint256[],uint256[],bytes)":"f04f2707","setApproval(address,address,uint256)":"0c9fcec9","uniswapV3SwapCallback(int256,int256,bytes)":"fa461e33","vault()":"fbfa77cf","withdraw(address,uint256)":"f3fef3a3","withdrawETH()":"e086e5ec"},"id":0}