{"abi":[{"type":"constructor","inputs":[],"stateMutability":"nonpayable"},{"type":"receive","stateMutability":"payable"},{"type":"function","name":"aavePool","inputs":[],"outputs":[{"name":"","type":"address","internalType":"contract IAavePool"}],"stateMutability":"view"},{"type":"function","name":"algebraSwapCallback","inputs":[{"name":"amount0Delta","type":"int256","internalType":"int256"},{"name":"amount1Delta","type":"int256","internalType":"int256"},{"name":"data","type":"bytes","internalType":"bytes"}],"outputs":[],"stateMutability":"nonpayable"},{"type":"function","name":"executeArb","inputs":[{"name":"tokenIn","type":"address","internalType":"address"},{"name":"amountIn","type":"uint256","internalType":"uint256"},{"name":"buyPool","type":"address","internalType":"address"},{"name":"sellPool","type":"address","internalType":"address"},{"name":"tokenOut","type":"address","internalType":"address"},{"name":"buyIsV3","type":"bool","internalType":"bool"},{"name":"sellIsV3","type":"bool","internalType":"bool"},{"name":"minProfit","type":"uint256","internalType":"uint256"}],"outputs":[],"stateMutability":"nonpayable"},{"type":"function","name":"executeArbAaveFL","inputs":[{"name":"tokenIn","type":"address","internalType":"address"},{"name":"amountIn","type":"uint256","internalType":"uint256"},{"name":"buyPool","type":"address","internalType":"address"},{"name":"sellPool","type":"address","internalType":"address"},{"name":"tokenOut","type":"address","internalType":"address"},{"name":"buyIsV3","type":"bool","internalType":"bool"},{"name":"sellIsV3","type":"bool","internalType":"bool"},{"name":"minProfit","type":"uint256","internalType":"uint256"}],"outputs":[],"stateMutability":"nonpayable"},{"type":"function","name":"executeArbFlashLoan","inputs":[{"name":"tokenIn","type":"address","internalType":"address"},{"name":"amountIn","type":"uint256","internalType":"uint256"},{"name":"buyPool","type":"address","internalType":"address"},{"name":"sellPool","type":"address","internalType":"address"},{"name":"tokenOut","type":"address","internalType":"address"},{"name":"buyIsV3","type":"bool","internalType":"bool"},{"name":"sellIsV3","type":"bool","internalType":"bool"},{"name":"minProfit","type":"uint256","internalType":"uint256"}],"outputs":[],"stateMutability":"nonpayable"},{"type":"function","name":"executeMultiHopAaveFL","inputs":[{"name":"flashToken","type":"address","internalType":"address"},{"name":"flashAmount","type":"uint256","internalType":"uint256"},{"name":"hops","type":"tuple[]","internalType":"struct ArbExecutor.SwapHop[]","components":[{"name":"pool","type":"address","internalType":"address"},{"name":"tokenOut","type":"address","internalType":"address"},{"name":"isV3","type":"bool","internalType":"bool"},{"name":"isCurve","type":"bool","internalType":"bool"},{"name":"zeroForOne","type":"bool","internalType":"bool"},{"name":"amountOut","type":"uint256","internalType":"uint256"},{"name":"curveI","type":"int128","internalType":"int128"},{"name":"curveJ","type":"int128","internalType":"int128"}]},{"name":"minProfit","type":"uint256","internalType":"uint256"}],"outputs":[],"stateMutability":"nonpayable"},{"type":"function","name":"executeMultiHopFlashLoan","inputs":[{"name":"flashToken","type":"address","internalType":"address"},{"name":"flashAmount","type":"uint256","internalType":"uint256"},{"name":"hops","type":"tuple[]","internalType":"struct ArbExecutor.SwapHop[]","components":[{"name":"pool","type":"address","internalType":"address"},{"name":"tokenOut","type":"address","internalType":"address"},{"name":"isV3","type":"bool","internalType":"bool"},{"name":"isCurve","type":"bool","internalType":"bool"},{"name":"zeroForOne","type":"bool","internalType":"bool"},{"name":"amountOut","type":"uint256","internalType":"uint256"},{"name":"curveI","type":"int128","internalType":"int128"},{"name":"curveJ","type":"int128","internalType":"int128"}]},{"name":"minProfit","type":"uint256","internalType":"uint256"}],"outputs":[],"stateMutability":"nonpayable"},{"type":"function","name":"executeOperation","inputs":[{"name":"asset","type":"address","internalType":"address"},{"name":"amount","type":"uint256","internalType":"uint256"},{"name":"premium","type":"uint256","internalType":"uint256"},{"name":"initiator","type":"address","internalType":"address"},{"name":"params","type":"bytes","internalType":"bytes"}],"outputs":[{"name":"","type":"bool","internalType":"bool"}],"stateMutability":"nonpayable"},{"type":"function","name":"liquidateFlashLoan","inputs":[{"name":"lendingPool","type":"address","internalType":"address"},{"name":"borrower","type":"address","internalType":"address"},{"name":"debtToken","type":"address","internalType":"address"},{"name":"debtAmount","type":"uint256","internalType":"uint256"},{"name":"collateralToken","type":"address","internalType":"address"},{"name":"sellPool","type":"address","internalType":"address"},{"name":"sellIsV3","type":"bool","internalType":"bool"},{"name":"sellIsCurve","type":"bool","internalType":"bool"},{"name":"minProfit","type":"uint256","internalType":"uint256"}],"outputs":[],"stateMutability":"nonpayable"},{"type":"function","name":"owner","inputs":[],"outputs":[{"name":"","type":"address","internalType":"address"}],"stateMutability":"view"},{"type":"function","name":"pancakeV3SwapCallback","inputs":[{"name":"amount0Delta","type":"int256","internalType":"int256"},{"name":"amount1Delta","type":"int256","internalType":"int256"},{"name":"data","type":"bytes","internalType":"bytes"}],"outputs":[],"stateMutability":"nonpayable"},{"type":"function","name":"receiveFlashLoan","inputs":[{"name":"tokens","type":"address[]","internalType":"address[]"},{"name":"amounts","type":"uint256[]","internalType":"uint256[]"},{"name":"feeAmounts","type":"uint256[]","internalType":"uint256[]"},{"name":"userData","type":"bytes","internalType":"bytes"}],"outputs":[],"stateMutability":"nonpayable"},{"type":"function","name":"setApproval","inputs":[{"name":"token","type":"address","internalType":"address"},{"name":"spender","type":"address","internalType":"address"},{"name":"amount","type":"uint256","internalType":"uint256"}],"outputs":[],"stateMutability":"nonpayable"},{"type":"function","name":"uniswapV3SwapCallback","inputs":[{"name":"amount0Delta","type":"int256","internalType":"int256"},{"name":"amount1Delta","type":"int256","internalType":"int256"},{"name":"data","type":"bytes","internalType":"bytes"}],"outputs":[],"stateMutability":"nonpayable"},{"type":"function","name":"vault","inputs":[],"outputs":[{"name":"","type":"address","internalType":"contract IBalancerVault"}],"stateMutability":"view"},{"type":"function","name":"withdraw","inputs":[{"name":"token","type":"address","internalType":"address"},{"name":"amount","type":"uint256","internalType":"uint256"}],"outputs":[],"stateMutability":"nonpayable"},{"type":"function","name":"withdrawETH","inputs":[],"outputs":[],"stateMutability":"nonpayable"}],"bytecode":{"object":"0x60a060405234801561000f575f80fd5b503360805260805161471a6100795f395f818161025501528181610354015281816104df01528181610b0f01528181610cc001528181610f0501528181611226015281816114570152818161170e015281816117980152818161235f0152612423015261471a5ff3fe60806040526004361061010b575f3560e01c806364c70214116100a1578063e086e5ec11610071578063f3fef3a311610057578063f3fef3a3146102f6578063fa461e331461018a578063fbfa77cf14610315575f80fd5b8063e086e5ec146102c3578063f04f2707146102d7575f80fd5b806364c70214146102065780637c93656c146102255780638da5cb5b14610244578063a03e4bc31461029c575f80fd5b80632c8958f6116100dc5780632c8958f61461018a57806346ce97ef146101a9578063508f0a87146101c857806352da377f146101e7575f80fd5b8062b27b29146101165780630c9fcec9146101375780631b11d0ff1461015657806323a69e751461018a575f80fd5b3661011257005b5f80fd5b348015610121575f80fd5b506101356101303660046139f0565b61033c565b005b348015610142575f80fd5b50610135610151366004613a82565b6104c7565b348015610161575f80fd5b50610175610170366004613b05565b610602565b60405190151581526020015b60405180910390f35b348015610195575f80fd5b506101356101a4366004613b7c565b610aeb565b3480156101b4575f80fd5b506101356101c3366004613bcb565b610af7565b3480156101d3575f80fd5b506101356101e23660046139f0565b610ca8565b3480156101f2575f80fd5b50610135610201366004613c57565b610eed565b348015610211575f80fd5b50610135610220366004613bcb565b61120e565b348015610230575f80fd5b5061013561023f3660046139f0565b61143f565b34801561024f575f80fd5b506102777f000000000000000000000000000000000000000000000000000000000000000081565b60405173ffffffffffffffffffffffffffffffffffffffff9091168152602001610181565b3480156102a7575f80fd5b5061027773794a61358d6845594f94dc1db02a252b5b4814ad81565b3480156102ce575f80fd5b506101356116f6565b3480156102e2575f80fd5b506101356102f1366004613e90565b61187e565b348015610301575f80fd5b50610135610310366004613f92565b612347565b348015610320575f80fd5b5061027773ba12222222228d8ba445958a75a0704d566bf2c881565b3373ffffffffffffffffffffffffffffffffffffffff7f000000000000000000000000000000000000000000000000000000000000000016146103e0576040517f08c379a000000000000000000000000000000000000000000000000000000000815260206004820152600960248201527f6e6f74206f776e6572000000000000000000000000000000000000000000000060448201526064015b60405180910390fd5b6040805173ffffffffffffffffffffffffffffffffffffffff88811660208301528781168284015286166060820152841515608082015283151560a082015260c08082018490528251808303909101815260e08201928390527f42b0b77c0000000000000000000000000000000000000000000000000000000090925273794a61358d6845594f94dc1db02a252b5b4814ad906342b0b77c9061048f9030908d908d9087905f9060e401614027565b5f604051808303815f87803b1580156104a6575f80fd5b505af11580156104b8573d5f803e3d5ffd5b50505050505050505050505050565b3373ffffffffffffffffffffffffffffffffffffffff7f00000000000000000000000000000000000000000000000000000000000000001614610566576040517f08c379a000000000000000000000000000000000000000000000000000000000815260206004820152600960248201527f6e6f74206f776e6572000000000000000000000000000000000000000000000060448201526064016103d7565b6040517f095ea7b300000000000000000000000000000000000000000000000000000000815273ffffffffffffffffffffffffffffffffffffffff83811660048301526024820183905284169063095ea7b3906044016020604051808303815f875af11580156105d8573d5f803e3d5ffd5b505050506040513d601f19601f820116820180604052508101906105fc919061407b565b50505050565b5f3373794a61358d6845594f94dc1db02a252b5b4814ad14610680576040517f08c379a000000000000000000000000000000000000000000000000000000000815260206004820152600860248201527f6e6f74206161766500000000000000000000000000000000000000000000000060448201526064016103d7565b73ffffffffffffffffffffffffffffffffffffffff841630146106ff576040517f08c379a000000000000000000000000000000000000000000000000000000000815260206004820152600d60248201527f62616420696e69746961746f720000000000000000000000000000000000000060448201526064016103d7565b6040517f70a082310000000000000000000000000000000000000000000000000000000081523060048201525f9073ffffffffffffffffffffffffffffffffffffffff8916906370a0823190602401602060405180830381865afa158015610769573d5f803e3d5ffd5b505050506040513d601f19601f8201168201806040525081019061078d919061409d565b6001549091505f90156108dc5760025490506108c889896001805480602002602001604051908101604052809291908181526020015f905b828210156108bf575f848152602090819020604080516101008101825260048602909201805473ffffffffffffffffffffffffffffffffffffffff90811684526001808301549182168587015260ff74010000000000000000000000000000000000000000830481161515948601949094527501000000000000000000000000000000000000000000820484161515606086015276010000000000000000000000000000000000000000000090910490921615156080840152600281015460a084015260030154600f81810b60c0850152700100000000000000000000000000000000909104900b60e083015290835290920191016107c5565b505050506124a1565b6108d360015f613937565b5f600255610913565b5f80808080806108ee8a8c018c6140b4565b95509550955095509550955080965061090c8f8f88888888886126ed565b5050505050505b5f61091e888a614156565b6040517f70a082310000000000000000000000000000000000000000000000000000000081523060048201529091505f9073ffffffffffffffffffffffffffffffffffffffff8c16906370a0823190602401602060405180830381865afa15801561098b573d5f803e3d5ffd5b505050506040513d601f19601f820116820180604052508101906109af919061409d565b9050826109bc8386614156565b6109c69190614156565b811015610a2f576040517f08c379a000000000000000000000000000000000000000000000000000000000815260206004820152601360248201527f696e73756666696369656e742070726f6669740000000000000000000000000060448201526064016103d7565b6040517f095ea7b300000000000000000000000000000000000000000000000000000000815273794a61358d6845594f94dc1db02a252b5b4814ad60048201526024810183905273ffffffffffffffffffffffffffffffffffffffff8c169063095ea7b3906044016020604051808303815f875af1158015610ab3573d5f803e3d5ffd5b505050506040513d601f19601f82011682018060405250810190610ad7919061407b565b5060019450505050505b9695505050505050565b6105fc84848484612746565b3373ffffffffffffffffffffffffffffffffffffffff7f00000000000000000000000000000000000000000000000000000000000000001614610b96576040517f08c379a000000000000000000000000000000000000000000000000000000000815260206004820152600960248201527f6e6f74206f776e6572000000000000000000000000000000000000000000000060448201526064016103d7565b5f5b82811015610bec576001848483818110610bb457610bb461416f565b83546001810185555f948552602090942061010090910292909201926004029091019050610be282826141b9565b5050600101610b98565b5060028190556040517f42b0b77c00000000000000000000000000000000000000000000000000000000815230600482015273ffffffffffffffffffffffffffffffffffffffff861660248201526044810185905260a060648201525f60a48201819052608482015273794a61358d6845594f94dc1db02a252b5b4814ad906342b0b77c9060c4015f604051808303815f87803b158015610c8b575f80fd5b505af1158015610c9d573d5f803e3d5ffd5b505050505050505050565b3373ffffffffffffffffffffffffffffffffffffffff7f00000000000000000000000000000000000000000000000000000000000000001614610d47576040517f08c379a000000000000000000000000000000000000000000000000000000000815260206004820152600960248201527f6e6f74206f776e6572000000000000000000000000000000000000000000000060448201526064016103d7565b6040805173ffffffffffffffffffffffffffffffffffffffff8089166020830152808816928201929092529085166060820152831515608082015282151560a082015260c081018290525f9060e001604080518083037fffffffffffffffffffffffffffffffffffffffffffffffffffffffffffffffe0018152600180845283830190925292505f919081602001602082028036833701905050905089815f81518110610df657610df661416f565b73ffffffffffffffffffffffffffffffffffffffff92909216602092830291909101909101526040805160018082528183019092525f9181602001602082028036833701905050905089815f81518110610e5257610e5261416f565b60209081029190910101526040517f5c38449e00000000000000000000000000000000000000000000000000000000815273ba12222222228d8ba445958a75a0704d566bf2c890635c38449e90610eb3903090869086908990600401614407565b5f604051808303815f87803b158015610eca575f80fd5b505af1158015610edc573d5f803e3d5ffd5b505050505050505050505050505050565b3373ffffffffffffffffffffffffffffffffffffffff7f00000000000000000000000000000000000000000000000000000000000000001614610f8c576040517f08c379a000000000000000000000000000000000000000000000000000000000815260206004820152600960248201527f6e6f74206f776e6572000000000000000000000000000000000000000000000060448201526064016103d7565b604080516101008101825273ffffffffffffffffffffffffffffffffffffffff8b81168083528b821660208085018290528a84168587018190528d851660608701819052948b16608087018190528a151560a088018190528a151560c0890181905260e09098018a9052600380547fffffffffffffffffffffffff0000000000000000000000000000000000000000908116909717905560048054871690951790945560058054861690921790915560068054909416909417909255600780547fffffffffffffffffffffff0000000000000000000000000000000000000000001690931774010000000000000000000000000000000000000000909102177fffffffffffffffffffff00ffffffffffffffffffffffffffffffffffffffffff1675010000000000000000000000000000000000000000009093029290921790556008839055815160018082528184019093525f929091828101908036833701905050905087815f815181106111045761110461416f565b73ffffffffffffffffffffffffffffffffffffffff92909216602092830291909101909101526040805160018082528183019092525f9181602001602082028036833701905050905087815f815181106111605761116061416f565b60200260200101818152505073ba12222222228d8ba445958a75a0704d566bf2c873ffffffffffffffffffffffffffffffffffffffff16635c38449e3084846040516020016111e09060208082526009908201527f4c49515549444154450000000000000000000000000000000000000000000000604082015260600190565b6040516020818303038152906040526040518563ffffffff1660e01b8152600401610eb39493929190614407565b3373ffffffffffffffffffffffffffffffffffffffff7f000000000000000000000000000000000000000000000000000000000000000016146112ad576040517f08c379a000000000000000000000000000000000000000000000000000000000815260206004820152600960248201527f6e6f74206f776e6572000000000000000000000000000000000000000000000060448201526064016103d7565b5f5b828110156113035760018484838181106112cb576112cb61416f565b83546001810185555f9485526020909420610100909102929092019260040290910190506112f982826141b9565b50506001016112af565b50600281905560408051602080820183525f808352835160018082528186019095529293909291828101908036833701905050905086815f8151811061134b5761134b61416f565b73ffffffffffffffffffffffffffffffffffffffff92909216602092830291909101909101526040805160018082528183019092525f9181602001602082028036833701905050905086815f815181106113a7576113a761416f565b60209081029190910101526040517f5c38449e00000000000000000000000000000000000000000000000000000000815273ba12222222228d8ba445958a75a0704d566bf2c890635c38449e90611408903090869086908990600401614407565b5f604051808303815f87803b15801561141f575f80fd5b505af1158015611431573d5f803e3d5ffd5b505050505050505050505050565b3373ffffffffffffffffffffffffffffffffffffffff7f000000000000000000000000000000000000000000000000000000000000000016146114de576040517f08c379a000000000000000000000000000000000000000000000000000000000815260206004820152600960248201527f6e6f74206f776e6572000000000000000000000000000000000000000000000060448201526064016103d7565b6040517f70a082310000000000000000000000000000000000000000000000000000000081523060048201525f9073ffffffffffffffffffffffffffffffffffffffff8a16906370a0823190602401602060405180830381865afa158015611548573d5f803e3d5ffd5b505050506040513d601f19601f8201168201806040525081019061156c919061409d565b9050878110156115d8576040517f08c379a000000000000000000000000000000000000000000000000000000000815260206004820152601460248201527f696e73756666696369656e742062616c616e636500000000000000000000000060448201526064016103d7565b6115e7898989898989896126ed565b6040517f70a082310000000000000000000000000000000000000000000000000000000081523060048201525f9073ffffffffffffffffffffffffffffffffffffffff8b16906370a0823190602401602060405180830381865afa158015611651573d5f803e3d5ffd5b505050506040513d601f19601f82011682018060405250810190611675919061409d565b90506116818383614156565b8110156116ea576040517f08c379a000000000000000000000000000000000000000000000000000000000815260206004820152601360248201527f696e73756666696369656e742070726f6669740000000000000000000000000060448201526064016103d7565b50505050505050505050565b3373ffffffffffffffffffffffffffffffffffffffff7f00000000000000000000000000000000000000000000000000000000000000001614611795576040517f08c379a000000000000000000000000000000000000000000000000000000000815260206004820152600960248201527f6e6f74206f776e6572000000000000000000000000000000000000000000000060448201526064016103d7565b5f7f000000000000000000000000000000000000000000000000000000000000000073ffffffffffffffffffffffffffffffffffffffff16476040515f6040518083038185875af1925050503d805f811461180b576040519150601f19603f3d011682016040523d82523d5f602084013e611810565b606091505b505090508061187b576040517f08c379a000000000000000000000000000000000000000000000000000000000815260206004820152601360248201527f455448207472616e73666572206661696c65640000000000000000000000000060448201526064016103d7565b50565b3373ba12222222228d8ba445958a75a0704d566bf2c8146118fb576040517f08c379a000000000000000000000000000000000000000000000000000000000815260206004820152600960248201527f6e6f74207661756c74000000000000000000000000000000000000000000000060448201526064016103d7565b5f845f8151811061190e5761190e61416f565b602002602001015190505f845f8151811061192b5761192b61416f565b602002602001015190505f845f815181106119485761194861416f565b602002602001015190505f818361195f9190614156565b60035490915073ffffffffffffffffffffffffffffffffffffffff1615611f845760408051610100810182526003805473ffffffffffffffffffffffffffffffffffffffff808216845260048054808316602087015260058054808516888a01526006805480871660608b018190526007805498891660808d015260ff740100000000000000000000000000000000000000008a048116151560a08e015275010000000000000000000000000000000000000000008a0416151560c08d01526008805460e08e01527fffffffffffffffffffffffff00000000000000000000000000000000000000009a8b16909b559589168755928816909355959091169094557fffffffffffffffffffff000000000000000000000000000000000000000000009092169091555f9283905593517f70a08231000000000000000000000000000000000000000000000000000000008152309481019490945291929091906370a0823190602401602060405180830381865afa158015611ae2573d5f803e3d5ffd5b505050506040513d601f19601f82011682018060405250810190611b06919061409d565b606083015183516040517f095ea7b300000000000000000000000000000000000000000000000000000000815273ffffffffffffffffffffffffffffffffffffffff918216600482015260248101899052929350169063095ea7b3906044016020604051808303815f875af1158015611b81573d5f803e3d5ffd5b505050506040513d601f19601f82011682018060405250810190611ba5919061407b565b5081516040808401516060850151602086015192517ea718a900000000000000000000000000000000000000000000000000000000815273ffffffffffffffffffffffffffffffffffffffff928316600482015290821660248201529181166044830152606482018890525f60848301529091169062a718a99060a4015f604051808303815f87803b158015611c39575f80fd5b505af1158015611c4b573d5f803e3d5ffd5b5050505060408281015190517f70a082310000000000000000000000000000000000000000000000000000000081523060048201525f9173ffffffffffffffffffffffffffffffffffffffff16906370a0823190602401602060405180830381865afa158015611cbd573d5f803e3d5ffd5b505050506040513d601f19601f82011682018060405250810190611ce1919061409d565b90505f8111611d4c576040517f08c379a000000000000000000000000000000000000000000000000000000000815260206004820152601660248201527f6e6f20636f6c6c61746572616c2072656365697665640000000000000000000060448201526064016103d7565b8260c0015115611d7457611d6e836080015184604001518560600151846128ab565b50611db1565b8260a0015115611d9657611d6e83608001518460400151856060015184612ade565b611daf8360800151846040015185606001518430612c95565b505b60608301516040517f70a082310000000000000000000000000000000000000000000000000000000081523060048201525f9173ffffffffffffffffffffffffffffffffffffffff16906370a0823190602401602060405180830381865afa158015611e1f573d5f803e3d5ffd5b505050506040513d601f19601f82011682018060405250810190611e43919061409d565b60e0850151909150611e558685614156565b611e5f9190614156565b811015611ec8576040517f08c379a000000000000000000000000000000000000000000000000000000000815260206004820152601860248201527f6c69717569646174696f6e20756e70726f66697461626c65000000000000000060448201526064016103d7565b60608401516040517fa9059cbb00000000000000000000000000000000000000000000000000000000815273ba12222222228d8ba445958a75a0704d566bf2c860048201526024810187905273ffffffffffffffffffffffffffffffffffffffff9091169063a9059cbb906044016020604051808303815f875af1158015611f52573d5f803e3d5ffd5b505050506040513d601f19601f82011682018060405250810190611f76919061407b565b5050505050505050506105fc565b6040517f70a082310000000000000000000000000000000000000000000000000000000081523060048201525f9073ffffffffffffffffffffffffffffffffffffffff8616906370a0823190602401602060405180830381865afa158015611fee573d5f803e3d5ffd5b505050506040513d601f19601f82011682018060405250810190612012919061409d565b6001549091505f90156121525750600254600180546040805160208084028201810190925282815261213e938a938a935f90840182156108bf575f848152602090819020604080516101008101825260048602909201805473ffffffffffffffffffffffffffffffffffffffff90811684526001808301549182168587015260ff74010000000000000000000000000000000000000000830481161515948601949094527501000000000000000000000000000000000000000000820484161515606086015276010000000000000000000000000000000000000000000090910490921615156080840152600281015460a084015260030154600f81810b60c0850152700100000000000000000000000000000000909104900b60e083015290835290920191016107c5565b61214960015f613937565b5f600255612191565b5f805f805f808c80602001905181019061216c91906144ac565b95509550955095509550955080965061218a8c8c88888888886126ed565b5050505050505b6040517f70a082310000000000000000000000000000000000000000000000000000000081523060048201525f9073ffffffffffffffffffffffffffffffffffffffff8816906370a0823190602401602060405180830381865afa1580156121fb573d5f803e3d5ffd5b505050506040513d601f19601f8201168201806040525081019061221f919061409d565b90508161222c8585614156565b6122369190614156565b81101561229f576040517f08c379a000000000000000000000000000000000000000000000000000000000815260206004820152601360248201527f696e73756666696369656e742070726f6669740000000000000000000000000060448201526064016103d7565b6040517fa9059cbb00000000000000000000000000000000000000000000000000000000815273ba12222222228d8ba445958a75a0704d566bf2c860048201526024810185905273ffffffffffffffffffffffffffffffffffffffff88169063a9059cbb906044016020604051808303815f875af1158015612323573d5f803e3d5ffd5b505050506040513d601f19601f82011682018060405250810190611431919061407b565b3373ffffffffffffffffffffffffffffffffffffffff7f000000000000000000000000000000000000000000000000000000000000000016146123e6576040517f08c379a000000000000000000000000000000000000000000000000000000000815260206004820152600960248201527f6e6f74206f776e6572000000000000000000000000000000000000000000000060448201526064016103d7565b6040517fa9059cbb00000000000000000000000000000000000000000000000000000000815273ffffffffffffffffffffffffffffffffffffffff7f0000000000000000000000000000000000000000000000000000000000000000811660048301526024820183905283169063a9059cbb906044016020604051808303815f875af1158015612478573d5f803e3d5ffd5b505050506040513d601f19601f8201168201806040525081019061249c919061407b565b505050565b82825f5b83518110156126e557801561255f576040517f70a082310000000000000000000000000000000000000000000000000000000081523060048201525f9073ffffffffffffffffffffffffffffffffffffffff8516906370a0823190602401602060405180830381865afa15801561251e573d5f803e3d5ffd5b505050506040513d601f19601f82011682018060405250810190612542919061409d565b90506064612551826063614525565b61255b919061453c565b9250505b8381815181106125715761257161416f565b602002602001015160600151156125ec576125e58482815181106125975761259761416f565b60200260200101515f015184848785815181106125b6576125b661416f565b602002602001015160c001518886815181106125d4576125d461416f565b602002602001015160e001516131e9565b91506126bb565b8381815181106125fe576125fe61416f565b60200260200101516040015115612654576125e58482815181106126245761262461416f565b60200260200101515f015184848785815181106126435761264361416f565b602002602001015160800151613329565b6126b88482815181106126695761266961416f565b60200260200101515f015184848785815181106126885761268861416f565b6020026020010151608001518886815181106126a6576126a661416f565b602002602001015160a0015130613456565b91505b8381815181106126cd576126cd61416f565b602090810291909101810151015192506001016124a5565b505050505050565b5f8215612707576127008689868a612ade565b9050612717565b6127148689868a30612c95565b90505b811561272f5761272985858a84612ade565b5061273c565b610c9d85858a8430612c95565b5050505050505050565b5f5473ffffffffffffffffffffffffffffffffffffffff1633146127c6576040517f08c379a000000000000000000000000000000000000000000000000000000000815260206004820152601560248201527f756e617574686f72697a65642063616c6c6261636b000000000000000000000060448201526064016103d7565b5f80547fffffffffffffffffffffffff00000000000000000000000000000000000000001681556127f982840184614574565b90505f808613612809578461280b565b855b6040517fa9059cbb0000000000000000000000000000000000000000000000000000000081523360048201526024810182905290915073ffffffffffffffffffffffffffffffffffffffff83169063a9059cbb906044016020604051808303815f875af115801561287e573d5f803e3d5ffd5b505050506040513d601f19601f820116820180604052508101906128a2919061407b565b50505050505050565b6040517fc66106570000000000000000000000000000000000000000000000000000000081525f6004820181905290819073ffffffffffffffffffffffffffffffffffffffff87169063c661065790602401602060405180830381865afa158015612918573d5f803e3d5ffd5b505050506040513d601f19601f8201168201806040525081019061293c919061458f565b90505f8173ffffffffffffffffffffffffffffffffffffffff168673ffffffffffffffffffffffffffffffffffffffff161461297957600161297b565b5f5b90505f81600f0b5f1461298e575f612991565b60015b6040517f095ea7b300000000000000000000000000000000000000000000000000000000815273ffffffffffffffffffffffffffffffffffffffff8a81166004830152602482018890529192509088169063095ea7b3906044016020604051808303815f875af1158015612a07573d5f803e3d5ffd5b505050506040513d601f19601f82011682018060405250810190612a2b919061407b565b506040517f3df02124000000000000000000000000000000000000000000000000000000008152600f83810b600483015282900b6024820152604481018690525f606482015273ffffffffffffffffffffffffffffffffffffffff891690633df02124906084016020604051808303815f875af1158015612aae573d5f803e3d5ffd5b505050506040513d601f19601f82011682018060405250810190612ad2919061409d565b98975050505050505050565b5f808573ffffffffffffffffffffffffffffffffffffffff16630dfe16816040518163ffffffff1660e01b8152600401602060405180830381865afa158015612b29573d5f803e3d5ffd5b505050506040513d601f19601f82011682018060405250810190612b4d919061458f565b5f80547fffffffffffffffffffffffff00000000000000000000000000000000000000001673ffffffffffffffffffffffffffffffffffffffff89811691821783559293508383169288169290921491819063128acb0830858981612bc65773fffd8963efd1fc6a506488495d951d5263988d25612bcd565b6401000276a45b8d604051602001612bfa919073ffffffffffffffffffffffffffffffffffffffff91909116815260200190565b6040516020818303038152906040526040518663ffffffff1660e01b8152600401612c299594939291906145aa565b60408051808303815f875af1158015612c44573d5f803e3d5ffd5b505050506040513d601f19601f82011682018060405250810190612c6891906145f0565b9150915082612c7f57612c7a82614612565b612c88565b612c8881614612565b9998505050505050505050565b6040517fa9059cbb00000000000000000000000000000000000000000000000000000000815273ffffffffffffffffffffffffffffffffffffffff8681166004830152602482018490525f919086169063a9059cbb906044016020604051808303815f875af1158015612d0a573d5f803e3d5ffd5b505050506040513d601f19601f82011682018060405250810190612d2e919061407b565b505f808773ffffffffffffffffffffffffffffffffffffffff16630902f1ac6040518163ffffffff1660e01b8152600401606060405180830381865afa158015612d7a573d5f803e3d5ffd5b505050506040513d601f19601f82011682018060405250810190612d9e919061466a565b50915091505f8873ffffffffffffffffffffffffffffffffffffffff16630dfe16816040518163ffffffff1660e01b8152600401602060405180830381865afa158015612ded573d5f803e3d5ffd5b505050506040513d601f19601f82011682018060405250810190612e11919061458f565b905073ffffffffffffffffffffffffffffffffffffffff888116908216145f8082612e5d57846dffffffffffffffffffffffffffff16866dffffffffffffffffffffffffffff16612e80565b856dffffffffffffffffffffffffffff16856dffffffffffffffffffffffffffff165b9092509050601e5f8073ffffffffffffffffffffffffffffffffffffffff8f1686612ecb577f2fcd169200000000000000000000000000000000000000000000000000000000612eed565b7f62ecec03000000000000000000000000000000000000000000000000000000005b60408051600481526024810182526020810180517bffffffffffffffffffffffffffffffffffffffffffffffffffffffff167fffffffff000000000000000000000000000000000000000000000000000000009094169390931790925251612f5591906146b6565b5f60405180830381855afa9150503d805f8114612f8d576040519150601f19603f3d011682016040523d82523d5f602084013e612f92565b606091505b5091509150818015612fa657506020815110155b15612fe9575f81806020019051810190612fc0919061409d565b90505f81118015612fd2575061271081105b15612fe757612fe260648261453c565b509250825b505b5f828015612ff957506020825110155b1561304e5761300b84620186a06146d1565b90505f613018828f614525565b90508061302888620186a0614525565b6130329190614156565b61303c8783614525565b613046919061453c565b9b505061308c565b5f61305b8e6103e5614525565b90508061306a886103e8614525565b6130749190614156565b61307e8783614525565b613088919061453c565b9b50505b8615613136578f73ffffffffffffffffffffffffffffffffffffffff1663022c0d9f5f8d8f6040518463ffffffff1660e01b815260040161310493929190928352602083019190915273ffffffffffffffffffffffffffffffffffffffff1660408201526080606082018190525f9082015260a00190565b5f604051808303815f87803b15801561311b575f80fd5b505af115801561312d573d5f803e3d5ffd5b505050506131d6565b8f73ffffffffffffffffffffffffffffffffffffffff1663022c0d9f8c5f8f6040518463ffffffff1660e01b81526004016131a893929190928352602083019190915273ffffffffffffffffffffffffffffffffffffffff1660408201526080606082018190525f9082015260a00190565b5f604051808303815f87803b1580156131bf575f80fd5b505af11580156131d1573d5f803e3d5ffd5b505050505b5050505050505050505095945050505050565b6040517f095ea7b300000000000000000000000000000000000000000000000000000000815273ffffffffffffffffffffffffffffffffffffffff8681166004830152602482018590525f919086169063095ea7b3906044016020604051808303815f875af115801561325e573d5f803e3d5ffd5b505050506040513d601f19601f82011682018060405250810190613282919061407b565b506040517f3df02124000000000000000000000000000000000000000000000000000000008152600f84810b600483015283900b6024820152604481018590525f606482015273ffffffffffffffffffffffffffffffffffffffff871690633df02124906084016020604051808303815f875af1158015613305573d5f803e3d5ffd5b505050506040513d601f19601f82011682018060405250810190610ae1919061409d565b5f80547fffffffffffffffffffffffff00000000000000000000000000000000000000001673ffffffffffffffffffffffffffffffffffffffff861690811782558190819063128acb08308688816133955773fffd8963efd1fc6a506488495d951d5263988d2561339c565b6401000276a45b6040805173ffffffffffffffffffffffffffffffffffffffff8e166020820152016040516020818303038152906040526040518663ffffffff1660e01b81526004016133ec9594939291906145aa565b60408051808303815f875af1158015613407573d5f803e3d5ffd5b505050506040513d601f19601f8201168201806040525081019061342b91906145f0565b91509150836134425761343d82614612565b61344b565b61344b81614612565b979650505050505050565b6040517fa9059cbb00000000000000000000000000000000000000000000000000000000815273ffffffffffffffffffffffffffffffffffffffff8781166004830152602482018690525f919087169063a9059cbb906044016020604051808303815f875af11580156134cb573d5f803e3d5ffd5b505050506040513d601f19601f820116820180604052508101906134ef919061407b565b5082156134fd5750816137ee565b5f808873ffffffffffffffffffffffffffffffffffffffff16630902f1ac6040518163ffffffff1660e01b8152600401606060405180830381865afa158015613548573d5f803e3d5ffd5b505050506040513d601f19601f8201168201806040525081019061356c919061466a565b50915091505f808761359f57826dffffffffffffffffffffffffffff16846dffffffffffffffffffffffffffff166135c2565b836dffffffffffffffffffffffffffff16836dffffffffffffffffffffffffffff165b915091505f808c73ffffffffffffffffffffffffffffffffffffffff168a61360a577f2fcd16920000000000000000000000000000000000000000000000000000000061362c565b7f62ecec03000000000000000000000000000000000000000000000000000000005b60408051600481526024810182526020810180517bffffffffffffffffffffffffffffffffffffffffffffffffffffffff167fffffffff00000000000000000000000000000000000000000000000000000000909416939093179092525161369491906146b6565b5f60405180830381855afa9150503d805f81146136cc576040519150601f19603f3d011682016040523d82523d5f602084013e6136d1565b606091505b50915091508180156136e557506020815110155b156137a9575f818060200190518101906136ff919061409d565b90505f811180156137125750620186a081105b15613765575f61372582620186a06146d1565b61372f908e614525565b90508061373f87620186a0614525565b6137499190614156565b6137538683614525565b61375d919061453c565b9850506137a3565b5f6137728d6103e5614525565b905080613781876103e8614525565b61378b9190614156565b6137958683614525565b61379f919061453c565b9850505b506137e7565b5f6137b68c6103e5614525565b9050806137c5866103e8614525565b6137cf9190614156565b6137d98583614525565b6137e3919061453c565b9750505b5050505050505b8315613893576040517f022c0d9f0000000000000000000000000000000000000000000000000000000081525f600482018190526024820183905273ffffffffffffffffffffffffffffffffffffffff848116604484015260806064840152608483019190915288169063022c0d9f9060a4015f604051808303815f87803b158015613878575f80fd5b505af115801561388a573d5f803e3d5ffd5b50505050610ae1565b6040517f022c0d9f000000000000000000000000000000000000000000000000000000008152600481018290525f6024820181905273ffffffffffffffffffffffffffffffffffffffff848116604484015260806064840152608483019190915288169063022c0d9f9060a4015f604051808303815f87803b158015613917575f80fd5b505af1158015613929573d5f803e3d5ffd5b505050509695505050505050565b5080545f8255600402905f5260205f209081019061187b91905b808211156139be5780547fffffffffffffffffffffffff00000000000000000000000000000000000000001681556001810180547fffffffffffffffffff00000000000000000000000000000000000000000000001690555f600282018190556003820155600401613951565b5090565b73ffffffffffffffffffffffffffffffffffffffff8116811461187b575f80fd5b801515811461187b575f80fd5b5f805f805f805f80610100898b031215613a08575f80fd5b8835613a13816139c2565b9750602089013596506040890135613a2a816139c2565b95506060890135613a3a816139c2565b94506080890135613a4a816139c2565b935060a0890135613a5a816139e3565b925060c0890135613a6a816139e3565b8092505060e089013590509295985092959890939650565b5f805f60608486031215613a94575f80fd5b8335613a9f816139c2565b92506020840135613aaf816139c2565b929592945050506040919091013590565b5f8083601f840112613ad0575f80fd5b50813567ffffffffffffffff811115613ae7575f80fd5b602083019150836020828501011115613afe575f80fd5b9250929050565b5f805f805f8060a08789031215613b1a575f80fd5b8635613b25816139c2565b955060208701359450604087013593506060870135613b43816139c2565b9250608087013567ffffffffffffffff811115613b5e575f80fd5b613b6a89828a01613ac0565b979a9699509497509295939492505050565b5f805f8060608587031215613b8f575f80fd5b8435935060208501359250604085013567ffffffffffffffff811115613bb3575f80fd5b613bbf87828801613ac0565b95989497509550505050565b5f805f805f60808688031215613bdf575f80fd5b8535613bea816139c2565b945060208601359350604086013567ffffffffffffffff80821115613c0d575f80fd5b818801915088601f830112613c20575f80fd5b813581811115613c2e575f80fd5b8960208260081b8501011115613c42575f80fd5b96999598505060200195606001359392505050565b5f805f805f805f805f6101208a8c031215613c70575f80fd5b8935613c7b816139c2565b985060208a0135613c8b816139c2565b975060408a0135613c9b816139c2565b965060608a0135955060808a0135613cb2816139c2565b945060a08a0135613cc2816139c2565b935060c08a0135613cd2816139e3565b925060e08a0135613ce2816139e3565b809250506101008a013590509295985092959850929598565b7f4e487b71000000000000000000000000000000000000000000000000000000005f52604160045260245ffd5b604051601f82017fffffffffffffffffffffffffffffffffffffffffffffffffffffffffffffffe016810167ffffffffffffffff81118282101715613d6f57613d6f613cfb565b604052919050565b5f67ffffffffffffffff821115613d9057613d90613cfb565b5060051b60200190565b5f82601f830112613da9575f80fd5b81356020613dbe613db983613d77565b613d28565b8083825260208201915060208460051b870101935086841115613ddf575f80fd5b602086015b84811015613dfb5780358352918301918301613de4565b509695505050505050565b5f82601f830112613e15575f80fd5b813567ffffffffffffffff811115613e2f57613e2f613cfb565b613e6060207fffffffffffffffffffffffffffffffffffffffffffffffffffffffffffffffe0601f84011601613d28565b818152846020838601011115613e74575f80fd5b816020850160208301375f918101602001919091529392505050565b5f805f8060808587031215613ea3575f80fd5b843567ffffffffffffffff80821115613eba575f80fd5b818701915087601f830112613ecd575f80fd5b81356020613edd613db983613d77565b82815260059290921b8401810191818101908b841115613efb575f80fd5b948201945b83861015613f22578535613f13816139c2565b82529482019490820190613f00565b98505088013592505080821115613f37575f80fd5b613f4388838901613d9a565b94506040870135915080821115613f58575f80fd5b613f6488838901613d9a565b93506060870135915080821115613f79575f80fd5b50613f8687828801613e06565b91505092959194509250565b5f8060408385031215613fa3575f80fd5b8235613fae816139c2565b946020939093013593505050565b5f5b83811015613fd6578181015183820152602001613fbe565b50505f910152565b5f8151808452613ff5816020860160208601613fbc565b601f017fffffffffffffffffffffffffffffffffffffffffffffffffffffffffffffffe0169290920160200192915050565b5f73ffffffffffffffffffffffffffffffffffffffff808816835280871660208401525084604083015260a0606083015261406560a0830185613fde565b905061ffff831660808301529695505050505050565b5f6020828403121561408b575f80fd5b8151614096816139e3565b9392505050565b5f602082840312156140ad575f80fd5b5051919050565b5f805f805f8060c087890312156140c9575f80fd5b86356140d4816139c2565b955060208701356140e4816139c2565b945060408701356140f4816139c2565b93506060870135614104816139e3565b92506080870135614114816139e3565b8092505060a087013590509295509295509295565b7f4e487b71000000000000000000000000000000000000000000000000000000005f52601160045260245ffd5b8082018082111561416957614169614129565b92915050565b7f4e487b71000000000000000000000000000000000000000000000000000000005f52603260045260245ffd5b5f8135614169816139e3565b5f813580600f0b8114614169575f80fd5b81356141c4816139c2565b81547fffffffffffffffffffffffff00000000000000000000000000000000000000001673ffffffffffffffffffffffffffffffffffffffff821617825550600181016020830135614215816139c2565b81547fffffffffffffffffffffffff00000000000000000000000000000000000000001673ffffffffffffffffffffffffffffffffffffffff8216178255506040830135614262816139e3565b81547fffffffffffffffffffffff00ffffffffffffffffffffffffffffffffffffffff1690151560a01b74ff0000000000000000000000000000000000000000161781556143006142b56060850161419c565b8280547fffffffffffffffffffff00ffffffffffffffffffffffffffffffffffffffffff1691151560a81b75ff00000000000000000000000000000000000000000016919091179055565b61435b61430f6080850161419c565b8280547fffffffffffffffffff00ffffffffffffffffffffffffffffffffffffffffffff1691151560b01b76ff0000000000000000000000000000000000000000000016919091179055565b5060a08201356002820155600381016143b761437960c085016141a8565b82547fffffffffffffffffffffffffffffffff00000000000000000000000000000000166fffffffffffffffffffffffffffffffff91909116178255565b61249c6143c660e085016141a8565b82546fffffffffffffffffffffffffffffffff1660809190911b7fffffffffffffffffffffffffffffffff0000000000000000000000000000000016178255565b5f6080820173ffffffffffffffffffffffffffffffffffffffff8088168452602060808186015282885180855260a087019150828a0194505f5b8181101561445f578551851683529483019491830191600101614441565b505085810360408701528751808252908201935091508087015f5b838110156144965781518552938201939082019060010161447a565b50505050828103606084015261344b8185613fde565b5f805f805f8060c087890312156144c1575f80fd5b86516144cc816139c2565b60208801519096506144dd816139c2565b60408801519095506144ee816139c2565b60608801519094506144ff816139e3565b6080880151909350614510816139e3565b8092505060a087015190509295509295509295565b808202811582820484141761416957614169614129565b5f8261456f577f4e487b71000000000000000000000000000000000000000000000000000000005f52601260045260245ffd5b500490565b5f60208284031215614584575f80fd5b8135614096816139c2565b5f6020828403121561459f575f80fd5b8151614096816139c2565b5f73ffffffffffffffffffffffffffffffffffffffff8088168352861515602084015285604084015280851660608401525060a0608083015261344b60a0830184613fde565b5f8060408385031215614601575f80fd5b505080516020909101519092909150565b5f7f8000000000000000000000000000000000000000000000000000000000000000820361464257614642614129565b505f0390565b80516dffffffffffffffffffffffffffff81168114614665575f80fd5b919050565b5f805f6060848603121561467c575f80fd5b61468584614648565b925061469360208501614648565b9150604084015163ffffffff811681146146ab575f80fd5b809150509250925092565b5f82516146c7818460208701613fbc565b9190910192915050565b818103818111156141695761416961412956fea264697066735822122077baa2cc43873fd37617f3823c15a2e60b185b3b59a496eb0bf3f6b74f77324d64736f6c63430008180033","linkReferences":{}},"methodIdentifiers":{"aavePool()":"a03e4bc3","algebraSwapCallback(int256,int256,bytes)":"2c8958f6","executeArb(address,uint256,address,address,address,bool,bool,uint256)":"7c93656c","executeArbAaveFL(address,uint256,address,address,address,bool,bool,uint256)":"00b27b29","executeArbFlashLoan(address,uint256,address,address,address,bool,bool,uint256)":"508f0a87","executeMultiHopAaveFL(address,uint256,(address,address,bool,bool,bool,uint256,int128,int128)[],uint256)":"46ce97ef","executeMultiHopFlashLoan(address,uint256,(address,address,bool,bool,bool,uint256,int128,int128)[],uint256)":"64c70214","executeOperation(address,uint256,uint256,address,bytes)":"1b11d0ff","liquidateFlashLoan(address,address,address,uint256,address,address,bool,bool,uint256)":"52da377f","owner()":"8da5cb5b","pancakeV3SwapCallback(int256,int256,bytes)":"23a69e75","receiveFlashLoan(address[],uint256[],uint256[],bytes)":"f04f2707","setApproval(address,address,uint256)":"0c9fcec9","uniswapV3SwapCallback(int256,int256,bytes)":"fa461e33","vault()":"fbfa77cf","withdraw(address,uint256)":"f3fef3a3","withdrawETH()":"e086e5ec"},"id":21}